{"abi":[{"type":"constructor","inputs":[],"stateMutability":"nonpayable"},{"type":"function","name":"L1_INITIATION_DELAY","inputs":[],"outputs":[{"name":"","type":"uint256","internalType":"uint256"}],"stateMutability":"view"},{"type":"function","name":"MAX_L1_ORIGIN_DELAY","inputs":[],"outputs":[{"name":"","type":"uint256","internalType":"uint256"}],"stateMutability":"view"},{"type":"function","name":"MAX_PREBLOCKS_PER_BATCH","inputs":[],"outputs":[{"name":"","type":"uint256","internalType":"uint256"}],"stateMutability":"view"},{"type":"function","name":"acceptOwnership","inputs":[],"outputs":[],"stateMutability":"nonpayable"},{"type":"function","name":"addProver","inputs":[{"name":"prover","type":"address","internalType":"address"}],"outputs":[],"stateMutability":"nonpayable"},{"type":"function","name":"addSequencer","inputs":[{"name":"sequencer","type":"address","internalType":"address"}],"outputs":[],"stateMutability":"nonpayable"},{"type":"function","name":"claimProverFees","inputs":[{"name":"receiveAddress","type":"address","internalType":"address"}],"outputs":[],"stateMutability":"nonpayable"},{"type":"function","name":"commitBatch","inputs":[{"name":"sequencerKeystoreAddress","type":"bytes32","internalType":"bytes32"},{"name":"l1Origin","type":"uint256","internalType":"uint256"},{"name":"baseFeeScalar","type":"uint256","internalType":"uint256"},{"name":"blobBaseFeeScalar","type":"uint256","internalType":"uint256"},{"name":"preblocks","type":"bytes","internalType":"bytes"}],"outputs":[],"stateMutability":"nonpayable"},{"type":"function","name":"commitBatch4844","inputs":[{"name":"sequencerKeystoreAddress","type":"bytes32","internalType":"bytes32"},{"name":"l1Origin","type":"uint256","internalType":"uint256"},{"name":"baseFeeScalar","type":"uint256","internalType":"uint256"},{"name":"blobBaseFeeScalar","type":"uint256","internalType":"uint256"},{"name":"blobDataProof","type":"bytes","internalType":"bytes"}],"outputs":[],"stateMutability":"nonpayable"},{"type":"function","name":"committedBatchesCount","inputs":[],"outputs":[{"name":"","type":"uint256","internalType":"uint256"}],"stateMutability":"view"},{"type":"function","name":"extsload","inputs":[{"name":"slot","type":"bytes32","internalType":"bytes32"}],"outputs":[{"name":"","type":"bytes32","internalType":"bytes32"}],"stateMutability":"view"},{"type":"function","name":"finalizeBatch","inputs":[{"name":"args","type":"tuple","internalType":"struct AxiomKeystoreRollup.FinalizationArgs","components":[{"name":"parentFinalizedBatchIndex","type":"uint256","internalType":"uint256"},{"name":"targetSequencerBatchIndex","type":"uint256","internalType":"uint256"},{"name":"targetL1BatchIndex","type":"uint256","internalType":"uint256"},{"name":"newStateRoot","type":"bytes32","internalType":"bytes32"},{"name":"newWithdrawalsRoot","type":"bytes32","internalType":"bytes32"},{"name":"rewardAddress","type":"address","internalType":"address"},{"name":"proof","type":"bytes","internalType":"bytes"}]}],"outputs":[],"stateMutability":"nonpayable"},{"type":"function","name":"finalizeWithdrawal","inputs":[{"name":"batchIndex","type":"uint256","internalType":"uint256"},{"name":"keystoreAddress","type":"bytes32","internalType":"bytes32"},{"name":"withdrawAmount","type":"uint256","internalType":"uint256"},{"name":"nonce","type":"uint256","internalType":"uint256"},{"name":"to","type":"address","internalType":"address"},{"name":"proof","type":"bytes32[]","internalType":"bytes32[]"},{"name":"isLeft","type":"uint256","internalType":"uint256"}],"outputs":[],"stateMutability":"nonpayable"},{"type":"function","name":"finalizedBatchData","inputs":[{"name":"index","type":"uint256","internalType":"uint256"}],"outputs":[{"name":"","type":"tuple","internalType":"struct AxiomKeystoreRollup.FinalizedBatchData","components":[{"name":"stateRoot","type":"bytes32","internalType":"bytes32"},{"name":"withdrawalsRoot","type":"bytes32","internalType":"bytes32"},{"name":"sequencerBatchIndex","type":"uint256","internalType":"uint256"},{"name":"l1BatchIndex","type":"uint256","internalType":"uint256"}]}],"stateMutability":"view"},{"type":"function","name":"finalizedBatchesCount","inputs":[],"outputs":[{"name":"","type":"uint256","internalType":"uint256"}],"stateMutability":"view"},{"type":"function","name":"initialize","inputs":[{"name":"l1DepositFee","type":"uint256","internalType":"uint256"},{"name":"l1WithdrawalFee","type":"uint256","internalType":"uint256"},{"name":"l1UpdateFee","type":"uint256","internalType":"uint256"}],"outputs":[],"stateMutability":"nonpayable"},{"type":"function","name":"initiateL1Transaction","inputs":[{"name":"_tx","type":"tuple","internalType":"struct AxiomKeystoreRollup.L1InitiatedTransaction","components":[{"name":"txType","type":"uint8","internalType":"enum AxiomKeystoreRollup.KeystoreTxType"},{"name":"data","type":"bytes","internalType":"bytes"}]}],"outputs":[],"stateMutability":"payable"},{"type":"function","name":"isProver","inputs":[{"name":"prover","type":"address","internalType":"address"}],"outputs":[{"name":"","type":"bool","internalType":"bool"}],"stateMutability":"view"},{"type":"function","name":"isSequencer","inputs":[{"name":"sequencer","type":"address","internalType":"address"}],"outputs":[{"name":"","type":"bool","internalType":"bool"}],"stateMutability":"view"},{"type":"function","name":"isWithdrawalClaimed","inputs":[{"name":"leaf","type":"bytes32","internalType":"bytes32"}],"outputs":[{"name":"","type":"bool","internalType":"bool"}],"stateMutability":"view"},{"type":"function","name":"l1BatchCount","inputs":[],"outputs":[{"name":"","type":"uint256","internalType":"uint256"}],"stateMutability":"view"},{"type":"function","name":"l1BatchData","inputs":[{"name":"index","type":"uint256","internalType":"uint256"}],"outputs":[{"name":"","type":"tuple","internalType":"struct AxiomKeystoreRollup.L1BatchData","components":[{"name":"batchCommitment","type":"bytes32","internalType":"bytes32"},{"name":"preblockCount","type":"uint256","internalType":"uint256"},{"name":"feeAccumulator","type":"uint256","internalType":"uint256"}]}],"stateMutability":"view"},{"type":"function","name":"l1BatchInclusionBlock","inputs":[{"name":"index","type":"uint256","internalType":"uint256"}],"outputs":[{"name":"","type":"uint32","internalType":"uint32"}],"stateMutability":"view"},{"type":"function","name":"l1InitiatedFee","inputs":[{"name":"txType","type":"uint8","internalType":"enum AxiomKeystoreRollup.KeystoreTxType"}],"outputs":[{"name":"","type":"uint256","internalType":"uint256"}],"stateMutability":"view"},{"type":"function","name":"latestStateRoot","inputs":[],"outputs":[{"name":"","type":"bytes32","internalType":"bytes32"}],"stateMutability":"view"},{"type":"function","name":"owner","inputs":[],"outputs":[{"name":"","type":"address","internalType":"address"}],"stateMutability":"view"},{"type":"function","name":"pendingL1Batches","inputs":[],"outputs":[{"name":"","type":"uint256","internalType":"uint256"}],"stateMutability":"view"},{"type":"function","name":"pendingOwner","inputs":[],"outputs":[{"name":"","type":"address","internalType":"address"}],"stateMutability":"view"},{"type":"function","name":"proverRewards","inputs":[{"name":"prover","type":"address","internalType":"address"}],"outputs":[{"name":"","type":"uint256","internalType":"uint256"}],"stateMutability":"view"},{"type":"function","name":"removeProver","inputs":[{"name":"prover","type":"address","internalType":"address"}],"outputs":[],"stateMutability":"nonpayable"},{"type":"function","name":"removeSequencer","inputs":[{"name":"sequencer","type":"address","internalType":"address"}],"outputs":[],"stateMutability":"nonpayable"},{"type":"function","name":"renounceOwnership","inputs":[],"outputs":[],"stateMutability":"nonpayable"},{"type":"function","name":"sequencerBatchCount","inputs":[],"outputs":[{"name":"","type":"uint256","internalType":"uint256"}],"stateMutability":"view"},{"type":"function","name":"sequencerBatchData","inputs":[{"name":"index","type":"uint256","internalType":"uint256"}],"outputs":[{"name":"","type":"tuple","internalType":"struct AxiomKeystoreRollup.SequencerBatchData","components":[{"name":"batchCommitment","type":"bytes32","internalType":"bytes32"},{"name":"l1Origin","type":"uint256","internalType":"uint256"},{"name":"prevL1BatchIndex","type":"uint256","internalType":"uint256"}]}],"stateMutability":"view"},{"type":"function","name":"setL1InitiatedTransactionFee","inputs":[{"name":"txType","type":"uint8","internalType":"enum AxiomKeystoreRollup.KeystoreTxType"},{"name":"newFee","type":"uint256","internalType":"uint256"}],"outputs":[],"stateMutability":"nonpayable"},{"type":"function","name":"transferOwnership","inputs":[{"name":"newOwner","type":"address","internalType":"address"}],"outputs":[],"stateMutability":"nonpayable"},{"type":"event","name":"BatchCommitted","inputs":[{"name":"batchIndex","type":"uint256","indexed":true,"internalType":"uint256"},{"name":"sequencerBatchIndex","type":"uint256","indexed":true,"internalType":"uint256"},{"name":"batchCommitment","type":"bytes32","indexed":false,"internalType":"bytes32"}],"anonymous":false},{"type":"event","name":"BatchCommitted4844","inputs":[{"name":"batchIndex","type":"uint256","indexed":true,"internalType":"uint256"},{"name":"sequencerBatchIndex","type":"uint256","indexed":true,"internalType":"uint256"},{"name":"batchCommitment","type":"bytes32","indexed":false,"internalType":"bytes32"}],"anonymous":false},{"type":"event","name":"BatchesFinalized","inputs":[{"name":"parentFinalizedBatchIndex","type":"uint256","indexed":true,"internalType":"uint256"},{"name":"targetBatchIndex","type":"uint256","indexed":true,"internalType":"uint256"},{"name":"newStateRoot","type":"bytes32","indexed":false,"internalType":"bytes32"},{"name":"withdrawalsRoot","type":"bytes32","indexed":false,"internalType":"bytes32"}],"anonymous":false},{"type":"event","name":"Initialized","inputs":[{"name":"version","type":"uint64","indexed":false,"internalType":"uint64"}],"anonymous":false},{"type":"event","name":"L1TransactionInitiated","inputs":[{"name":"l1BatchIndex","type":"uint256","indexed":true,"internalType":"uint256"},{"name":"l1BatchCommitment","type":"bytes32","indexed":false,"internalType":"bytes32"},{"name":"l1BatchInclusionBlock","type":"uint256","indexed":false,"internalType":"uint256"},{"name":"l1InitiatedNonce","type":"uint256","indexed":false,"internalType":"uint256"},{"name":"l2TxHash","type":"bytes32","indexed":false,"internalType":"bytes32"}],"anonymous":false},{"type":"event","name":"OwnershipTransferStarted","inputs":[{"name":"previousOwner","type":"address","indexed":true,"internalType":"address"},{"name":"newOwner","type":"address","indexed":true,"internalType":"address"}],"anonymous":false},{"type":"event","name":"OwnershipTransferred","inputs":[{"name":"previousOwner","type":"address","indexed":true,"internalType":"address"},{"name":"newOwner","type":"address","indexed":true,"internalType":"address"}],"anonymous":false},{"type":"event","name":"WithdrawFinalized","inputs":[{"name":"batchNumber","type":"uint256","indexed":true,"internalType":"uint256"},{"name":"keystoreAddress","type":"bytes32","indexed":true,"internalType":"bytes32"},{"name":"to","type":"address","indexed":true,"internalType":"address"},{"name":"withdrawAmount","type":"uint256","indexed":false,"internalType":"uint256"},{"name":"nonce","type":"uint256","indexed":false,"internalType":"uint256"}],"anonymous":false},{"type":"error","name":"BatchHasNoStateRoot","inputs":[]},{"type":"error","name":"BatchHasNoWithdrawalsRoot","inputs":[]},{"type":"error","name":"BatchNotFinalized","inputs":[]},{"type":"error","name":"BeaconRootFetchFailed","inputs":[]},{"type":"error","name":"CallPointEvaluationPrecompileFailed","inputs":[]},{"type":"error","name":"FoundMultipleBlobs","inputs":[]},{"type":"error","name":"InvalidInitialization","inputs":[]},{"type":"error","name":"InvalidL1Origin","inputs":[{"name":"l1Origin","type":"uint256","internalType":"uint256"}]},{"type":"error","name":"InvalidMsgValue","inputs":[]},{"type":"error","name":"InvalidWithdrawalProof","inputs":[]},{"type":"error","name":"L1BatchNotYetFinalizable","inputs":[]},{"type":"error","name":"MaxPreblocksPerL1BatchReached","inputs":[]},{"type":"error","name":"NoBlobFound","inputs":[]},{"type":"error","name":"NotInitializing","inputs":[]},{"type":"error","name":"NotProver","inputs":[]},{"type":"error","name":"NotSequencer","inputs":[]},{"type":"error","name":"OwnableInvalidOwner","inputs":[{"name":"owner","type":"address","internalType":"address"}]},{"type":"error","name":"OwnableUnauthorizedAccount","inputs":[{"name":"account","type":"address","internalType":"address"}]},{"type":"error","name":"ReentrantCall","inputs":[]},{"type":"error","name":"SequencerBatchNotAssociated","inputs":[]},{"type":"error","name":"TargetBatchAlreadyFinalized","inputs":[{"name":"finalizedBatchesCount","type":"uint256","internalType":"uint256"}]},{"type":"error","name":"TargetL1BatchNotCommitted","inputs":[]},{"type":"error","name":"TargetSequencerBatchNotCommitted","inputs":[]},{"type":"error","name":"TransferFailed","inputs":[]},{"type":"error","name":"UnexpectedPointEvaluationPrecompileOutput","inputs":[]},{"type":"error","name":"WithdrawalAlreadyClaimed","inputs":[]}],"bytecode":{"object":"0x6080604052348015600e575f80fd5b5060156019565b60c9565b7ff0c57e16840df040f15088dc2f81fe391c3923bec73e23a9662efc9c229c6a00805468010000000000000000900460ff161560685760405163f92ee8a960e01b815260040160405180910390fd5b80546001600160401b039081161460c65780546001600160401b0319166001600160401b0390811782556040519081527fc7f505b2f371ae2175ee4913f4499e1f2633a7b5936321eed1cdaeb6115181d29060200160405180910390a15b50565b61321c806100d65f395ff3fe608060405260043610610243575f3560e01c80638a33623111610131578063aab78a8e116100ac578063b5d2f7721161007c578063d900dbd311610062578063d900dbd314610937578063e30c39781461094b578063f2fde38b1461095f575f80fd5b8063b5d2f77214610895578063b7dffcfb146108b4575f80fd5b8063aab78a8e146107e1578063aea8b9a714610814578063b219266d14610861578063b571d3dd14610876575f80fd5b8063909ea9b111610101578063a5543308116100e7578063a554330814610759578063a7974030146107b9578063a876ecd1146107cd575f80fd5b8063909ea9b114610713578063991beafd14610726575f80fd5b80638a336231146106695780638da5cb5b146106885780638f4d66a5146106c15780638fed22d3146106e0575f80fd5b80636989ca7c116101c157806379ba5097116101915780637dcdebd5116101775780637dcdebd5146105e457806380d859111461061757806382c25d3514610636575f80fd5b806379ba5097146105405780637d07568a14610554575f80fd5b80636989ca7c1461048b5780636c3c2927146104aa5780636d46e987146104c9578063715018a61461052c575f80fd5b80631e2eaeaf116102165780632a39b873116101fc5780632a39b8731461036a578063317162d61461038957806367c4624014610457575f80fd5b80631e2eaeaf1461031e578063209df2011461034b575f80fd5b806302b21cea146102475780630a245924146102685780630e60ad9c146102e05780631d49e457146102ff575b5f80fd5b348015610252575f80fd5b50610266610261366004612cc8565b61097e565b005b348015610273575f80fd5b506102cb610282366004612d77565b73ffffffffffffffffffffffffffffffffffffffff165f9081527fc94330da5d5688c06df0ade6bfd773c87249c0b9f38b25021e2c16ab9672d00d602052604090205460ff1690565b60405190151581526020015b60405180910390f35b3480156102eb575f80fd5b506102666102fa366004612d77565b610c35565b34801561030a575f80fd5b50610266610319366004612d77565b610d66565b348015610329575f80fd5b5061033d610338366004612d97565b610ddb565b6040519081526020016102d7565b348015610356575f80fd5b5061033d610365366004612dbc565b610de5565b348015610375575f80fd5b50610266610384366004612dd5565b610e40565b348015610394575f80fd5b506104246103a3366004612d97565b60408051608080820183525f808352602080840182905283850182905260609384018290529481527fc94330da5d5688c06df0ade6bfd773c87249c0b9f38b25021e2c16ab9672d00a855283902083519182018452805482526001810154948201949094526002840154928101929092526003909201549181019190915290565b6040516102d791908151815260208083015190820152604080830151908201526060918201519181019190915260800190565b348015610462575f80fd5b50610476610471366004612d97565b611313565b60405163ffffffff90911681526020016102d7565b348015610496575f80fd5b506102666104a5366004612d77565b611374565b3480156104b5575f80fd5b506102666104c4366004612e0c565b6113e6565b3480156104d4575f80fd5b506102cb6104e3366004612d77565b73ffffffffffffffffffffffffffffffffffffffff165f9081527fc94330da5d5688c06df0ade6bfd773c87249c0b9f38b25021e2c16ab9672d00c602052604090205460ff1690565b348015610537575f80fd5b5061026661146a565b34801561054b575f80fd5b5061026661147d565b34801561055f575f80fd5b506105d761056e366004612d97565b60408051606080820183525f80835260208084018290529284018190529384527fc94330da5d5688c06df0ade6bfd773c87249c0b9f38b25021e2c16ab9672d0058252928290208251938401835280548452600181015491840191909152600201549082015290565b6040516102d79190612e34565b3480156105ef575f80fd5b507fc94330da5d5688c06df0ade6bfd773c87249c0b9f38b25021e2c16ab9672d0025461033d565b348015610622575f80fd5b50610266610631366004612e55565b6114f8565b348015610641575f80fd5b507fc94330da5d5688c06df0ade6bfd773c87249c0b9f38b25021e2c16ab9672d0035461033d565b348015610674575f80fd5b50610266610683366004612d77565b611a21565b348015610693575f80fd5b5061069c611a96565b60405173ffffffffffffffffffffffffffffffffffffffff90911681526020016102d7565b3480156106cc575f80fd5b506102666106db366004612e7e565b611ad7565b3480156106eb575f80fd5b507fc94330da5d5688c06df0ade6bfd773c87249c0b9f38b25021e2c16ab9672d0065461033d565b610266610721366004612f11565b611cce565b348015610731575f80fd5b507fc94330da5d5688c06df0ade6bfd773c87249c0b9f38b25021e2c16ab9672d0005461033d565b348015610764575f80fd5b5061033d610773366004612d77565b73ffffffffffffffffffffffffffffffffffffffff165f9081527fc94330da5d5688c06df0ade6bfd773c87249c0b9f38b25021e2c16ab9672d00e602052604090205490565b3480156107c4575f80fd5b5061033d611f9c565b3480156107d8575f80fd5b5061033d606481565b3480156107ec575f80fd5b507fc94330da5d5688c06df0ade6bfd773c87249c0b9f38b25021e2c16ab9672d0085461033d565b34801561081f575f80fd5b506102cb61082e366004612d97565b5f9081527fc94330da5d5688c06df0ade6bfd773c87249c0b9f38b25021e2c16ab9672d00b602052604090205460ff1690565b34801561086c575f80fd5b5061033d611c2081565b348015610881575f80fd5b50610266610890366004612d77565b611fd1565b3480156108a0575f80fd5b506102666108af366004612e7e565b612043565b3480156108bf575f80fd5b506105d76108ce366004612d97565b60408051606080820183525f80835260208084018290529284018190529384527fc94330da5d5688c06df0ade6bfd773c87249c0b9f38b25021e2c16ab9672d0078252928290208251938401835280548452600181015491840191909152600201549082015290565b348015610942575f80fd5b5061033d600a81565b348015610956575f80fd5b5061069c6121b9565b34801561096a575f80fd5b50610266610979366004612d77565b6121e1565b5f5c80156109b8576040517f37ed32e800000000000000000000000000000000000000000000000000000000815260040160405180910390fd5b60015f5d5f8981527fc94330da5d5688c06df0ade6bfd773c87249c0b9f38b25021e2c16ab9672d00a60205260408120600101547fc94330da5d5688c06df0ade6bfd773c87249c0b9f38b25021e2c16ab9672d00091819003610a47576040517f5565870f00000000000000000000000000000000000000000000000000000000815260040160405180910390fd5b6040805160208082018d90528183018c905260608083018c90528a901b7fffffffffffffffffffffffffffffffffffffffff00000000000000000000000016608083015282518083036074018152609490920190925280519101205f905f818152600b8501602052604090205490915060ff1615610af1576040517f2f29b3db00000000000000000000000000000000000000000000000000000000815260040160405180910390fd5b610afe8787848489612298565b5f818152600b8401602052604080822080547fffffffffffffffffffffffffffffffffffffffffffffffffffffffffffffff001660011790555173ffffffffffffffffffffffffffffffffffffffff8a16908c908381818185875af1925050503d805f8114610b88576040519150601f19603f3d011682016040523d82523d5f602084013e610b8d565b606091505b5050905080610bc8576040517f90b8ec1800000000000000000000000000000000000000000000000000000000815260040160405180910390fd5b8873ffffffffffffffffffffffffffffffffffffffff168c8e7f3aaf6c8701fd7dc8e9f5658e5d64b9a98138044fc502e1c0e6a1926d894c582e8e8e604051610c1b929190918252602082015260400190565b60405180910390a4505050505f805d505050505050505050565b5f5c8015610c6f576040517f37ed32e800000000000000000000000000000000000000000000000000000000815260040160405180910390fd5b60015f5d335f9081527fc94330da5d5688c06df0ade6bfd773c87249c0b9f38b25021e2c16ab9672d00e602052604080822080549083905590517fc94330da5d5688c06df0ade6bfd773c87249c0b9f38b25021e2c16ab9672d000929073ffffffffffffffffffffffffffffffffffffffff86169083908381818185875af1925050503d805f8114610d1c576040519150601f19603f3d011682016040523d82523d5f602084013e610d21565b606091505b5050905080610d5c576040517f90b8ec1800000000000000000000000000000000000000000000000000000000815260040160405180910390fd5b5050505f805d5050565b610d6e612365565b73ffffffffffffffffffffffffffffffffffffffff165f9081527fc94330da5d5688c06df0ade6bfd773c87249c0b9f38b25021e2c16ab9672d00d6020526040902080547fffffffffffffffffffffffffffffffffffffffffffffffffffffffffffffff00166001179055565b5f81545f5260205ff35b5f7fc94330da5d5688c06df0ade6bfd773c87249c0b9f38b25021e2c16ab9672d00981836002811115610e1a57610e1a612f48565b6002811115610e2b57610e2b612f48565b81526020019081526020015f20549050919050565b5f5c8015610e7a576040517f37ed32e800000000000000000000000000000000000000000000000000000000815260040160405180910390fd5b60015f5d335f9081527fc94330da5d5688c06df0ade6bfd773c87249c0b9f38b25021e2c16ab9672d00d60205260409020547fc94330da5d5688c06df0ade6bfd773c87249c0b9f38b25021e2c16ab9672d0009060ff16610f07576040517f2f6a53d800000000000000000000000000000000000000000000000000000000815260040160405180910390fd5b7fc94330da5d5688c06df0ade6bfd773c87249c0b9f38b25021e2c16ab9672d0005f610f3b60408601356020870135612fa2565b90508160020154811015610f8c5781600201546040517fb60d166f000000000000000000000000000000000000000000000000000000008152600401610f8391815260200190565b60405180910390fd5b6020808601355f9081526007840182526040808220818901358352600586019093528120825481549192909190829003610ff2576040517fa3d7023c00000000000000000000000000000000000000000000000000000000815260040160405180910390fd5b5f81900361102c576040517fd525813100000000000000000000000000000000000000000000000000000000815260040160405180910390fd5b600284015460408a013581101561117d575f87600401828154811061105357611053612fb5565b5f918252602080832060088304015460079283166004026101000a900463ffffffff169350908a0190829061108c908f01356001612fa2565b81526020019081526020015f20600101549050805f036110f057436110b3611c2084612fa2565b11156110eb576040517fca17379600000000000000000000000000000000000000000000000000000000815260040160405180910390fd5b61112a565b8181101561112a576040517f668d270700000000000000000000000000000000000000000000000000000000815260040160405180910390fd5b805f03611176575f6111408460408f0135612fe2565b9050808a6003015f8282546111559190612fe2565b92505081905550808a6008015f82825461116f9190612fa2565b9091555050505b50506111ba565b808a60400135146111ba576040517f668d270700000000000000000000000000000000000000000000000000000000815260040160405180910390fd5b5061120886600a015f8b5f013581526020019081526020015f2083838c606001358d608001358e60a00160208101906111f39190612d77565b8f8060c001906112039190612ff5565b6123bd565b5f858152600a8701602090815260409182902060608c0135815560808c01356001820155908b01356002820155908a0135600382015561124781612444565b600e88015f61125c60c08e0160a08f01612d77565b73ffffffffffffffffffffffffffffffffffffffff1673ffffffffffffffffffffffffffffffffffffffff1681526020019081526020015f205f8282546112a39190612fa2565b909155505060608a013587556112ba866001612fa2565b60028801556040805160608c0135815260808c0135602082015287918c35917f0fcc4d64edfbc249faf3dd60dc1a2b1fc6e493627d2c38c4d88538bc8c68fa59910160405180910390a350505050505050505f805d5050565b5f7fc94330da5d5688c06df0ade6bfd773c87249c0b9f38b25021e2c16ab9672d000600401828154811061134957611349612fb5565b905f5260205f2090600891828204019190066004029054906101000a900463ffffffff169050919050565b61137c612365565b73ffffffffffffffffffffffffffffffffffffffff165f9081527fc94330da5d5688c06df0ade6bfd773c87249c0b9f38b25021e2c16ab9672d00c6020526040902080547fffffffffffffffffffffffffffffffffffffffffffffffffffffffffffffff00169055565b6113ee612365565b7fc94330da5d5688c06df0ade6bfd773c87249c0b9f38b25021e2c16ab9672d000817fc94330da5d5688c06df0ade6bfd773c87249c0b9f38b25021e2c16ab9672d0095f85600281111561144457611444612f48565b600281111561145557611455612f48565b815260208101919091526040015f2055505050565b611472612365565b61147b5f6124ee565b565b33806114876121b9565b73ffffffffffffffffffffffffffffffffffffffff16146114ec576040517f118cdaa700000000000000000000000000000000000000000000000000000000815273ffffffffffffffffffffffffffffffffffffffff82166004820152602401610f83565b6114f5816124ee565b50565b7ff0c57e16840df040f15088dc2f81fe391c3923bec73e23a9662efc9c229c6a00805468010000000000000000810460ff16159067ffffffffffffffff165f811580156115425750825b90505f8267ffffffffffffffff16600114801561155e5750303b155b90508115801561156c575080155b156115a3576040517ff92ee8a900000000000000000000000000000000000000000000000000000000815260040160405180910390fd5b84547fffffffffffffffffffffffffffffffffffffffffffffffff000000000000000016600117855583156116045784547fffffffffffffffffffffffffffffffffffffffffffffff00ffffffffffffffff16680100000000000000001785555b7fc94330da5d5688c06df0ade6bfd773c87249c0b9f38b25021e2c16ab9672d00480546001808201909255600881047f8177f1c792ce890e11f7b6afa731745c4972d90209dcce3fc86fef839dd2db4b01805460079092166004026101000a63ffffffff021990911690557f27e87c261ce7c825f391f8bd6f243192f5d5194f599110f723a784d62f67a6ad7f9c71f1f174cd6f8a2a18c386b82b3dfad2793f2b59b175e6effda56bf652f5895560408051606080820183527fcee40b249ef2f3b190670243cac02ab08de8c800793f85d128831554cdf5e0c682524360208084019182525f8486018181528180527fc94330da5d5688c06df0ade6bfd773c87249c0b9f38b25021e2c16ab9672d007835294517fab756c7a6f7467592017dd2530dca4d296495302cff8a768d2d041c13bb1d5ba5591517fab756c7a6f7467592017dd2530dca4d296495302cff8a768d2d041c13bb1d5bb5592517fab756c7a6f7467592017dd2530dca4d296495302cff8a768d2d041c13bb1d5bc5583516080810185527f6077df4fc2481833b5c58e08af09e072f2cff19c55a4e5aafe65e575662d405c8082527f226d50da400d02d463c53e9a08cc47d82a297340d6a1f1d173d31aeea222840f8286019081529582018381529382018381528380527fc94330da5d5688c06df0ade6bfd773c87249c0b9f38b25021e2c16ab9672d00a865291517fc965b05e511b3867edcab282f29a6ff6db6ccafe144982ea7278b3a51b20f62d5594517fc965b05e511b3867edcab282f29a6ff6db6ccafe144982ea7278b3a51b20f62e5591517fc965b05e511b3867edcab282f29a6ff6db6ccafe144982ea7278b3a51b20f62f5590517fc965b05e511b3867edcab282f29a6ff6db6ccafe144982ea7278b3a51b20f630557fc94330da5d5688c06df0ade6bfd773c87249c0b9f38b25021e2c16ab9672d0028490557fc94330da5d5688c06df0ade6bfd773c87249c0b9f38b25021e2c16ab9672d0088490557fc94330da5d5688c06df0ade6bfd773c87249c0b9f38b25021e2c16ab9672d0009283557fc94330da5d5688c06df0ade6bfd773c87249c0b9f38b25021e2c16ab9672d009918290527f4914a1f15aa6ea52e3b6ef34f9a6ba06b81d4635012fcb7a1964e6f73736b7748c905591928a9290600281111561196257611962612f48565b81526020019081526020015f208190555086816009015f60028081111561198b5761198b612f48565b600281111561199c5761199c612f48565b815260208101919091526040015f20556119b533612542565b508315611a175784547fffffffffffffffffffffffffffffffffffffffffffffff00ffffffffffffffff168555604051600181527fc7f505b2f371ae2175ee4913f4499e1f2633a7b5936321eed1cdaeb6115181d29060200160405180910390a15b5050505050505050565b611a29612365565b73ffffffffffffffffffffffffffffffffffffffff165f9081527fc94330da5d5688c06df0ade6bfd773c87249c0b9f38b25021e2c16ab9672d00c6020526040902080547fffffffffffffffffffffffffffffffffffffffffffffffffffffffffffffff00166001179055565b5f807f9016d09d72d40fdae2fd8ceac6b6234c7706214fd39c1cd1e609a0528c1993005b5473ffffffffffffffffffffffffffffffffffffffff1692915050565b335f9081527fc94330da5d5688c06df0ade6bfd773c87249c0b9f38b25021e2c16ab9672d00c60205260409020547fc94330da5d5688c06df0ade6bfd773c87249c0b9f38b25021e2c16ab9672d0009060ff16611b60576040517f53e2827c00000000000000000000000000000000000000000000000000000000815260040160405180910390fd5b5f5c8015611b9a576040517f37ed32e800000000000000000000000000000000000000000000000000000000815260040160405180910390fd5b60015f5d5f4960014981611bda576040517f590c038600000000000000000000000000000000000000000000000000000000815260040160405180910390fd5b8015611c12576040517f0f08fa7500000000000000000000000000000000000000000000000000000000815260040160405180910390fd5b506040517f02000000000000000000000000000000000000000000000000000000000000006020820152602181018290525f90604101604051602081830303815290604052805190602001209050611c6b828787612553565b5f805f611c7b848e8e8e8e6126ac565b92509250925081837fd8e5364a6ae259f99ae97c066196c0ba163dd3cfb3bc1e967f2860ac8f4e40c883604051611cb491815260200190565b60405180910390a350505050505f805d5050505050505050565b5f5c8015611d08576040517f37ed32e800000000000000000000000000000000000000000000000000000000815260040160405180910390fd5b60015f5d7fc94330da5d5688c06df0ade6bfd773c87249c0b9f38b25021e2c16ab9672d0005f7fc94330da5d5688c06df0ade6bfd773c87249c0b9f38b25021e2c16ab9672d00981611d5d6020870187612dbc565b6002811115611d6e57611d6e612f48565b6002811115611d7f57611d7f612f48565b81526020019081526020015f205490505f611d9a85836128ee565b90505f611da5611f9c565b60018501545f8281526005870160205260408120805460028201549495509293909291611dd3600a43612fa2565b905080896004018781548110611deb57611deb612fb5565b5f918252602090912060088204015460079091166004026101000a900463ffffffff1614611e6f57611e1c8661305d565b9550886003015f8154611e2e9061305d565b90915550600489810180546001810182555f91825260209091206008820401805460079092169092026101000a63ffffffff81810219909216918416021790555b5f86815260058a016020526040902060018101547fffffffffffffffffffffffffffffffffffffffffffffffffffffffffffffff9c01611edb576040517f4fef572800000000000000000000000000000000000000000000000000000000815260040160405180910390fd5b6040805160208082018790528183018a90526060820185905242608083015260a08083018c90528351808403909101815260c09092019092528051910120808255611f268a85612fa2565b600283015560018083018054820190558b8101805490910190556040805182815260208101859052908101889052606081018a905288907f12b9cd6534800b648703ec5d0090895e021b0bd085742bdb34f574049695183b9060800160405180910390a250505050505050505050505f805d5050565b7fc94330da5d5688c06df0ade6bfd773c87249c0b9f38b25021e2c16ab9672d004545f90611fcc90600190612fe2565b905090565b611fd9612365565b73ffffffffffffffffffffffffffffffffffffffff165f9081527fc94330da5d5688c06df0ade6bfd773c87249c0b9f38b25021e2c16ab9672d00d6020526040902080547fffffffffffffffffffffffffffffffffffffffffffffffffffffffffffffff00169055565b335f9081527fc94330da5d5688c06df0ade6bfd773c87249c0b9f38b25021e2c16ab9672d00c60205260409020547fc94330da5d5688c06df0ade6bfd773c87249c0b9f38b25021e2c16ab9672d0009060ff166120cc576040517f53e2827c00000000000000000000000000000000000000000000000000000000815260040160405180910390fd5b5f5c8015612106576040517f37ed32e800000000000000000000000000000000000000000000000000000000815260040160405180910390fd5b60015f5d5f848460405161211b929190613094565b6040519081900381207f010000000000000000000000000000000000000000000000000000000000000060208301526021820181905291505f906041016040516020818303038152906040528051906020012090505f805f612180848e8e8e8e6126ac565b92509250925081837f60b4727687e43df535d5d9affc4e77584ac040186f3f7870f2a8133f920e35b883604051611cb491815260200190565b5f807f237e158222e3e6968b72b9db0d8043aacf074ad9f650f0d1606b4d82ee432c00611aba565b6121e9612365565b7f237e158222e3e6968b72b9db0d8043aacf074ad9f650f0d1606b4d82ee432c0080547fffffffffffffffffffffffff00000000000000000000000000000000000000001673ffffffffffffffffffffffffffffffffffffffff83169081178255612252611a96565b73ffffffffffffffffffffffffffffffffffffffff167f38d16b8cac22d99fc7c124b9cd0de2d3fa1faef420bfe791d8c362d765e2270060405160405180910390a35050565b83825f5b82811461232257600184821c81161480156122e3576122dc8989848181106122c6576122c6612fb5565b90506020020135845f9182526020526040902090565b9250612311565b61230e838a8a858181106122f9576122f9612fb5565b905060200201355f9182526020526040902090565b92505b5061231b8161305d565b905061229c565b5080851461235c576040517fb86abc9c00000000000000000000000000000000000000000000000000000000815260040160405180910390fd5b50505050505050565b3361236e611a96565b73ffffffffffffffffffffffffffffffffffffffff161461147b576040517f118cdaa7000000000000000000000000000000000000000000000000000000008152336004820152602401610f83565b875460018901545f8290036123fe576040517f2b2f351b00000000000000000000000000000000000000000000000000000000815260040160405180910390fd5b5f819003612438576040517f5105380800000000000000000000000000000000000000000000000000000000815260040160405180910390fd5b50505050505050505050565b5f7fc94330da5d5688c06df0ade6bfd773c87249c0b9f38b25021e2c16ab9672d0008160016124917fc94330da5d5688c06df0ade6bfd773c87249c0b9f38b25021e2c16ab9672d0025490565b035f818152600a8401602052604090206003808201549087015492935090918082106124c357505f9695505050505050565b5f91825260059094016020526040808220948252902060029384015493015492909203949350505050565b7f237e158222e3e6968b72b9db0d8043aacf074ad9f650f0d1606b4d82ee432c0080547fffffffffffffffffffffffff000000000000000000000000000000000000000016815561253e82612a56565b5050565b61254a612aeb565b6114f581612b52565b5f80600a73ffffffffffffffffffffffffffffffffffffffff16858585604051602001612582939291906130a3565b604080517fffffffffffffffffffffffffffffffffffffffffffffffffffffffffffffffe0818403018152908290526125ba916130d3565b5f60405180830381855afa9150503d805f81146125f2576040519150601f19603f3d011682016040523d82523d5f602084013e6125f7565b606091505b509150915081612633576040517feebc703800000000000000000000000000000000000000000000000000000000815260040160405180910390fd5b5f8180602001905181019061264891906130de565b9150507f73eda753299d7d483339d80809a1d80553bda402fffe5bfeffffffff0000000181146126a4576040517f30a0045e00000000000000000000000000000000000000000000000000000000815260040160405180910390fd5b505050505050565b5f805f8087874288886126bd612ba9565b6040805160208101979097528601949094526060850192909252608084015260a083015260c082015260e081018a90526101000160405160208183030381529060405290505f61272a7fc94330da5d5688c06df0ade6bfd773c87249c0b9f38b25021e2c16ab9672d00090565b905043881115612769576040517f59f3157900000000000000000000000000000000000000000000000000000000815260048101899052602401610f83565b43612776611c208a612fa2565b10156127b1576040517f59f3157900000000000000000000000000000000000000000000000000000000815260048101899052602401610f83565b60068101545f90815260078201602052604090206001015480891015612806576040517f59f31579000000000000000000000000000000000000000000000000000000008152600481018a9052602401610f83565b505f806128128a612be0565b915091505f8284600301546128279190612fe2565b600385018490556006850180549192505f6128418361305d565b909155505f818152600786016020526040812080549091612863846001612fa2565b905081818a60405160200161287a93929190613100565b6040516020818303038152906040528051906020012099508488600801546128a29190612fa2565b9b506128af8c6001612fa2565b60088901555f81815260079098016020526040909720898155600181019e909e5550505050600290990198909855939993985090965091945050505050565b5f7fc94330da5d5688c06df0ade6bfd773c87249c0b9f38b25021e2c16ab9672d0008161291e6020860186612dbc565b600281111561292f5761292f612f48565b036129cb5782341161296d576040517f1841b4e100000000000000000000000000000000000000000000000000000000815260040160405180910390fd5b5f61297b6020860186612ff5565b61298491613120565b90505f826001015485346129989190612fe2565b836040516020016129ac9493929190613198565b6040516020818303038152906040528051906020012092505050612a50565b823414612a04576040517f1841b4e100000000000000000000000000000000000000000000000000000000815260040160405180910390fd5b612a116020850185612dbc565b6001820154612a236020870187612ff5565b604051602001612a3694939291906131bf565b604051602081830303815290604052805190602001209150505b92915050565b7f9016d09d72d40fdae2fd8ceac6b6234c7706214fd39c1cd1e609a0528c19930080547fffffffffffffffffffffffff0000000000000000000000000000000000000000811673ffffffffffffffffffffffffffffffffffffffff848116918217845560405192169182907f8be0079c531659141344cd1fd0a4f28419497f9722a3daafe3b4186f6b6457e0905f90a3505050565b7ff0c57e16840df040f15088dc2f81fe391c3923bec73e23a9662efc9c229c6a005468010000000000000000900460ff1661147b576040517fd7e6bcf800000000000000000000000000000000000000000000000000000000815260040160405180910390fd5b612b5a612aeb565b73ffffffffffffffffffffffffffffffffffffffff81166114ec576040517f1e4fbdf70000000000000000000000000000000000000000000000000000000081525f6004820152602401610f83565b5f425f5260205f60205f720f3df6d732807ef1319fb7b8bb8522d0beac025afa612bda57631aa72f965f526004601cfd5b505f5190565b7fc94330da5d5688c06df0ade6bfd773c87249c0b9f38b25021e2c16ab9672d00480545f9182917fc94330da5d5688c06df0ade6bfd773c87249c0b9f38b25021e2c16ab9672d0009190600b845b818114612c96575f81600185030390505f858281548110612c5157612c51612fb5565b5f918252602090912060088204015460079091166004026101000a900463ffffffff169050898111612c8c5750909890975095505050505050565b5050600101612c2e565b5050505050915091565b803573ffffffffffffffffffffffffffffffffffffffff81168114612cc3575f80fd5b919050565b5f805f805f805f8060e0898b031215612cdf575f80fd5b88359750602089013596506040890135955060608901359450612d0460808a01612ca0565b935060a089013567ffffffffffffffff811115612d1f575f80fd5b8901601f81018b13612d2f575f80fd5b803567ffffffffffffffff811115612d45575f80fd5b8b60208260051b8401011115612d59575f80fd5b989b979a50959894979396602090960195939460c001359392505050565b5f60208284031215612d87575f80fd5b612d9082612ca0565b9392505050565b5f60208284031215612da7575f80fd5b5035919050565b803560038110612cc3575f80fd5b5f60208284031215612dcc575f80fd5b612d9082612dae565b5f60208284031215612de5575f80fd5b813567ffffffffffffffff811115612dfb575f80fd5b820160e08185031215612d90575f80fd5b5f8060408385031215612e1d575f80fd5b612e2683612dae565b946020939093013593505050565b81518152602080830151908201526040808301519082015260608101612a50565b5f805f60608486031215612e67575f80fd5b505081359360208301359350604090920135919050565b5f805f805f8060a08789031215612e93575f80fd5b86359550602087013594506040870135935060608701359250608087013567ffffffffffffffff811115612ec5575f80fd5b8701601f81018913612ed5575f80fd5b803567ffffffffffffffff811115612eeb575f80fd5b896020828401011115612efc575f80fd5b60208201935080925050509295509295509295565b5f60208284031215612f21575f80fd5b813567ffffffffffffffff811115612f37575f80fd5b820160408185031215612d90575f80fd5b7f4e487b71000000000000000000000000000000000000000000000000000000005f52602160045260245ffd5b7f4e487b71000000000000000000000000000000000000000000000000000000005f52601160045260245ffd5b80820180821115612a5057612a50612f75565b7f4e487b71000000000000000000000000000000000000000000000000000000005f52603260045260245ffd5b81810381811115612a5057612a50612f75565b5f8083357fffffffffffffffffffffffffffffffffffffffffffffffffffffffffffffffe1843603018112613028575f80fd5b83018035915067ffffffffffffffff821115613042575f80fd5b602001915036819003821315613056575f80fd5b9250929050565b5f7fffffffffffffffffffffffffffffffffffffffffffffffffffffffffffffffff820361308d5761308d612f75565b5060010190565b818382375f9101908152919050565b838152818360208301375f910160200190815292915050565b5f81518060208401855e5f93019283525090919050565b5f612d9082846130bc565b5f80604083850312156130ef575f80fd5b505080516020909101519092909150565b8381528260208201525f61311760408301846130bc565b95945050505050565b80356020831015612a50577fffffffffffffffffffffffffffffffffffffffffffffffffffffffffffffffff602084900360031b1b1692915050565b60038110613191577f4e487b71000000000000000000000000000000000000000000000000000000005f52602160045260245ffd5b60f81b9052565b6131a2818661315c565b600181019390935260218301919091526041820152606101919050565b6131c9818661315c565b836001820152818360218301375f9101602101908152939250505056fea26469706673582212203df2f1c225a169e3bd36755c1c6e01b05ec23bfdaf1df14b127daefb9b04cb0664736f6c634300081a0033","linkReferences":{}},"methodIdentifiers":{"L1_INITIATION_DELAY()":"d900dbd3","MAX_L1_ORIGIN_DELAY()":"b219266d","MAX_PREBLOCKS_PER_BATCH()":"a876ecd1","acceptOwnership()":"79ba5097","addProver(address)":"1d49e457","addSequencer(address)":"8a336231","claimProverFees(address)":"0e60ad9c","commitBatch(bytes32,uint256,uint256,uint256,bytes)":"b5d2f772","commitBatch4844(bytes32,uint256,uint256,uint256,bytes)":"8f4d66a5","committedBatchesCount()":"aab78a8e","extsload(bytes32)":"1e2eaeaf","finalizeBatch((uint256,uint256,uint256,bytes32,bytes32,address,bytes))":"2a39b873","finalizeWithdrawal(uint256,bytes32,uint256,uint256,address,bytes32[],uint256)":"02b21cea","finalizedBatchData(uint256)":"317162d6","finalizedBatchesCount()":"7dcdebd5","initialize(uint256,uint256,uint256)":"80d85911","initiateL1Transaction((uint8,bytes))":"909ea9b1","isProver(address)":"0a245924","isSequencer(address)":"6d46e987","isWithdrawalClaimed(bytes32)":"aea8b9a7","l1BatchCount()":"a7974030","l1BatchData(uint256)":"7d07568a","l1BatchInclusionBlock(uint256)":"67c46240","l1InitiatedFee(uint8)":"209df201","latestStateRoot()":"991beafd","owner()":"8da5cb5b","pendingL1Batches()":"82c25d35","pendingOwner()":"e30c3978","proverRewards(address)":"a5543308","removeProver(address)":"b571d3dd","removeSequencer(address)":"6989ca7c","renounceOwnership()":"715018a6","sequencerBatchCount()":"8fed22d3","sequencerBatchData(uint256)":"b7dffcfb","setL1InitiatedTransactionFee(uint8,uint256)":"6c3c2927","transferOwnership(address)":"f2fde38b"},"id":42}